:020000040800F2
:100000004804002045010008EB080008E308000848
:10001000E7080008DD080008C50900080000000026
:10002000000000000000000000000000EF080008D1
:10003000E108000800000000ED0800085D0100086C
:100040005F0100085F0100085F0100085F01000810
:100050005F0100085F0100085F0100085F01000800
:100060005F0100085F0100085F0100085F010008F0
:100070005F0100085F0100085F0100085F010008E0
:100080005F0100085F0100085F0100085F010008D0
:100090005F0100085F0100085F0100085F010008C0
:1000A0005F0100085F0100085F0100085F010008B0
:1000B0005F0100085F0100085F0100085F010008A0
:1000C0005F0100085F0100085F0100085F01000890
:1000D0005F0100085F0100085F0100085F01000880
:1000E0005F0100085F0100085F0100085F01000870
:1000F0005F0100085F0100085F0100085F01000860
:100100005F0100085F0100085F0100085F0100084F
:100110005F0100085F0100085F0100085F0100083F
:100120005F0100085F0100085F0100085F0100082F
:10013000DFF80CD000F0C0FB004800473D1A000873
:10014000480400200648804706480047FEE7FEE7CF
:10015000FEE7FEE7FEE7FEE7FEE7FEE7FEE7FEE777
:10016000F1080008310100082DE9F05F0546002084
:1001700092469B4688460646814640241BE0284618
:1001800041464746224600F0C3FA53465A46C01A33
:10019000914110D311461846224600F016F82D1A48
:1001A00067EB01084F4622460120002100F00DF8C0
:1001B00017EB00094E41201EA4F10104DFDC484684
:1001C00031462A464346BDE8F09F202A04DB203A08
:1001D00000FA02F1002070479140C2F1200320FA9A
:1001E00003F3194390407047202A06DBCB17203ACF
:1001F00041FA02F043EAE07306E041FA02F3D0402C
:10020000C2F120029140084319467047F0B480EAD9
:100210000102D40F4200B2EB410F02D2024608465F
:1002200011464A0042D0C30DDDB2C1F3C752AD1A28
:10023000202D35DAC1F3160141F4000204B1524217
:10024000C5F1200602FA06F12A411044B3EBD05F53
:1002500023D0C4B1012DA0EBC35009DCF0BC4FF09A
:10026000004202EAC352DBB200F5000000F069BAB6
:10027000400000F1807000EBC350A0F1807040EAB4
:10028000D170490009E0490841EAC071A0EBC350B0
:1002900000F50000400800EBC350F0BC00F048BA85
:1002A0006142012202EB4101001BF6E7F0BC7047FE
:1002B00081F00041AAE780F00040A7E780EA010250
:1002C00010B502F00043400022D04A001FD0010EBA
:1002D00001EB1261C0F35600C2F3560240F4000075
:1002E00042F40002A0FB022000047F39140400D075
:1002F000401C50EA124001D44000491EC2B20C0614
:1003000004EBD010401C4008802A02D003E00020FB
:1003100010BD20F00100002900DA0020184310BDB4
:100320002DE9FE4F804681EA0300C00F0C46009085
:1003300021F0004123F00045B8EB0200A94105D2AD
:100340004046214690461C460B46024623F000409C
:10035000104347D0270DC7F30A00C3F30A51029098
:10036000401A019040286BDAC3F3130040F4801B5D
:100370000098924620B10023D2EB030A63EB0B0BEB
:1003800001985946C0F140025046FFF71EFF06464D
:100390000D4650465946019AFFF726FF10EB08001C
:1003A0006141002487EA115284EAE7731A4340D07E
:1003B000009A62B3019A012A4FEA075215DC001B2A
:1003C00061EB02014FF0004202EA0752CDE9004220
:1003D000001C41F5801132462B4600F0EFF903B0C6
:1003E000BDE8F08F40462146F9E7001B61EB0201B2
:1003F000001C41F5801300185B412018A2F500177E
:1004000047EB030140EAD570B6196D4111E06D0864
:100410004FEA360645EAC0754FEA0752001B61EB0A
:100420000201001C41F5801149084FEA3000001913
:10043000514132462B4603B0BDE8F04F00F0AFB952
:100440000098012240000023D0EB020263EBE0732E
:10045000009821464FEAE074B8EB000061EB04011C
:10046000E9E783F000435BE781F0004158E72DE9BD
:10047000FE4F81EA030404F0004421F0004100949F
:100480004FF0000B23F0004350EA01045ED052EA23
:1004900003045BD0C3F30A54C1F30A552C44A4F2FD
:1004A000F3340194A0FB0254C1F3130141F4801111
:1004B000C3F3130343F4801301FB024400FB034E18
:1004C000840A970A44EA815447EA8357A4FB0768E1
:1004D00002958D0A05FB07854FEA932C04FB0C540B
:1004E0002705029D4FEA065847EA1637B5EB08057F
:1004F0006EEB070C870E920E47EA811742EA8312D1
:10050000A7FB0201B6EB0B0164EB00042B0D43EAE1
:100510000C335E1844EB1C50DA465146E7FB0201EF
:10052000C5F313044FEA0B3343EA14534FEA043282
:10053000019C43EA0603A4F10C040294009CCDE95B
:1005400000B400F03BF903B0BDE8F08F0020014695
:10055000F9E72DE9F04D81EA030404F0004B21F0A6
:10056000004514464FF0000A23F0004150EA05020E
:1005700020D054EA01021DD0C5F30A570246C5F344
:100580001303C1F31300C1F30A5640F4801543F47A
:100590008013A7EB0608101BD64608F2FD3873EB54
:1005A000050002D308F1010801E092185B41B8F19F
:1005B000000F03DA00200146BDE8F08D00204FF463
:1005C0008011064684460EE0171B73EB050705D322
:1005D000121B63EB050306434CEA010C49084FEA82
:1005E000300092185B4150EA0107EDD152EA030056
:1005F00012D082EA040083EA0501084305D0101BEB
:10060000AB4106D20122002306E000224FF0004356
:1006100002E06FF0010253101AEB06004CEB085198
:1006200010EB0A0041EB0B01BDE8F04D00F0B7B84C
:100630000EB540F2334102910021CDE900110A4686
:100640000B4600F0BBF803B000BD20F00040C10D28
:10065000C0F3160040F400007F2901DA0020704743
:10066000962903DCC1F19601C8407047963988404D
:10067000704700F0004230F000400AD0C10D01F593
:100680006071C0F3160042EA0151C20840071143ED
:10069000704700200146704701F0004330B421F05C
:1006A000004150EA010206D00A0DA2F56072C1F3C2
:1006B0001301002A02DC30BC00207047440F44EADA
:1006C000C104C100E01830BC00EBC25000F030B8EB
:1006D000002801DBC0F10040002901DBC1F100412D
:1006E0008842704730B50B46014600202022012485
:1006F00009E021FA02F59D4205D303FA02F5491BF0
:1007000004FA02F52844151EA2F10102F1DC30BD05
:10071000202A04DB203A21FA02F00021704721FA56
:1007200002F3D040C2F120029140084319467047BD
:100730000029A8BF7047401C490008BF20F00100F5
:10074000704710B4B0FA80FC00FA0CF050EA0104D3
:1007500004BF10BC704749B1CCF1200421FA04F465
:1007600011FA0CF118BF012121430843A3EB0C013E
:10077000CB1D4FEA00614FEA102042BF002010BCA1
:10078000704700EBC35010440029A4BF10BC704751
:10079000401C490008BF20F0010010BC704710B594
:1007A000141E73F1000408DA401C41F10001921894
:1007B0005B411A4301D120F0010010BD2DE9F04D3D
:1007C00092469B4611B1B1FA81F202E0B0FA80F292
:1007D00020329046FFF7F9FC04460F4640EA0A0033
:1007E00041EA0B0153465A46084313D0114653EAD7
:1007F000010019D0C8F140025046FFF789FF0546B5
:100800000E46504659464246FFF7DFFC084305D0E6
:10081000012004E020463946BDE8F08D0020054364
:1008200046EAE0762C4337430A986305E40AA0EBD6
:1008300008000022FD0A44EA47540A3002D500208D
:100840000146E9E7010510196941DDE9084500198C
:100850006941BDE8F04DA2E7C1F30A52C1F31301AB
:1008600040F2FF3341F480119A4202DA002001463F
:10087000704740F233439A42A2F2334202DC5242C2
:10088000FFF746BFFFF7A1BC30B5041E71F10004AD
:1008900004DB4FF00044404264EB0101141E73F18D
:1008A000000405DB1C464FF00043524263EB040397
:1008B000994208BF904230BD064C074D06E0E06803
:1008C00040F0010394E8070098471034AC42F6D397
:1008D000FFF732FC4C1F00086C1F000800BFFEE74A
:1008E000704700BFFEE700BFFEE7704770477047E4
:1008F00008B53048006840F001002E49086000BF8C
:100900002C48006800F002000028F9D000BF2948F8
:10091000406840F08000274948600020009002E0D5
:100920000098401C009000985028F9D32148406856
:1009300040F090001F4948600020009002E00098BD
:10094000401C009000985028F9D300BF1948406817
:1009500020F003001749486008460068164908401F
:100960001449086008464068144908401149486025
:1009700008460068104908400E49086008460068AB
:1009800020F480200860084640680D490840094965
:1009900048600846006808490840064908604FF466
:1009A0001F00886001F010FA00214FF0006001F094
:1009B0009BF808BD00100240FFFFF6FE0C00FFE8A8
:1009C000FFFF00F700BFFEE70FB4054B10B503A90A
:1009D000044A029800F0DAF810BC5DF814FB00003D
:1009E000D51800081400002002E008C8121F08C132
:1009F000002AFAD170477047002001E001C1121FA0
:100A0000002AFBD1704700002DE9FF5F82B0002172
:100A1000DDE90430020DDDF840B0034318D044F6A0
:100A20001050A2F2FF3242431514119801281FD032
:100A3000A5EB0B00401C5FEA000A4FF000064E4F8A
:100A4000DFF83891B046504615D5CAF1000413E0DE
:100A5000119801244AA3012801D16FEA0B010298E1
:100A6000119AC0E90031C0E9024206B0BDE8F09F2A
:100A7000CBF10000DFE704460021404A491842EB71
:100A80000450CDE9001012E0E00707D032463B46A3
:100A900040464946FFF7EBFC8046894632463B46D6
:100AA00010461946FFF7E3FC06460F466410002C7B
:100AB000EAD1DDE90401DDE90023BAF1000F06DA2D
:100AC000FFF7D5FC42464B46FFF7D1FC05E0FFF7A8
:100AD00040FD42464B46FFF73CFD04460E460022D1
:100AE000284BFFF7D1FE03D84FF0FF30014607E057
:100AF0000022254B20463146FFF712FCFFF7ACFEE3
:100B0000102409E0002C0ADB0A220023FFF72CFB4B
:100B1000039B30321A55641E50EA0102F2D1641C64
:100B2000039AC4F111031444119A012A03D001223B
:100B300008430DD10AE0084304D000204FF0110B08
:100B4000119072E7A3EB0B056D1E0DE05B4504DD14
:100B50004FF0000205F1010504E003DA4FF0000256
:100B6000A5F10105002AECD002981199C0E90231E3
:100B7000C0E9004579E70000000014400000F03FA4
:100B8000300000000000F0430000E03F2DE9FF4F7F
:100B900095B09B468946064600250FE2252877D169
:100BA00000242746F84A0121059400E0044316F882
:100BB000013F203B01FA03F01042F7D130782A2898
:100BC00011D06FF02F033078A0F13002092A16D827
:100BD000059A44F0020402EB820203EB4202104445
:100BE000761C0590EFE759F8042B0592002A03DAEA
:100BF000504244F40054059044F00204761C3078CE
:100C00002E2816D116F8010F44F004042A280DD01E
:100C10006FF02F023078A0F13003092B09D807EBD1
:100C2000870302EB4303C718761CF3E759F8047BEC
:100C3000761C30786C280FD006DC4C2817D068283A
:100C40000DD06A2814D104E0742810D07A280FD16E
:100C50000DE044F400140AE044F4801401E044F48C
:100C600040147278824202D104F58014761C761CFE
:100C7000307866280BD013DC582877D009DC0028A0
:100C800075D04528F6D04628F4D047281AD19DE1E2
:100C900018E0632835D0642879D0652812D195E111
:100CA000702873D008DC6728F1D069286FD06E28CF
:100CB0000DD06F2806D1B5E073282CD0752875D0DB
:100CC000782874D05A46179990476D1C75E1C4F383
:100CD0000250022809D003280DD0D9F800100428AA
:100CE0000DD00D6009F1040967E1D9F80010EA1789
:100CF000C1E90052F6E7D9F800100D80F2E70D7057
:100D0000F0E719F8041B8DF8001000208DF80100A1
:100D1000EA46012003E059F804AB4FF0FF306107C9
:100D20004FF0000102D40DE008F101018846B942FC
:100D30000FDA8045F8DB1AF808100029F4D108E032
:100D400008F1010188468142FADB1AF808100029EF
:100D5000F6D105985B46A0EB080721463846179A5E
:100D600000F094FA284400EB080507E04DE029E183
:100D70000DE01AF8010B5A4617999047B8F101088F
:100D8000F7D25B4621463846179A13E142E00A2221
:100D90000092C4F302524FF0000A022A08D059F818
:100DA00004CB032A4FEAEC710AD00DE029E02AE0D7
:100DB00009F1070121F00702F2E802C1914609E0BA
:100DC0000FFA8CFC4FEAEC71042A03D14FFA8CFC29
:100DD0004FEAEC71002907DA0A460021DCF1000C29
:100DE00061EB02012D2202E0220504D52B228DF8B1
:100DF0000420012203E0E20701D02022F7E7904619
:100E000059E00A2102E010220DE010214FF0000A03
:100E100000910BE010224FF0000A44F00404082770
:100E2000009203E008224FF0000A0092C4F302523D
:100E3000022A05D059F804CB0021032A08D009E082
:100E400009F1070121F00702F2E802C1914605E02D
:100E50001FFA8CFC042A01D10CF0FF0C4FF00008A3
:100E6000220728D5702806D0009B83F0100353EA90
:100E70000A0305D00EE040228DF80420012208E08C
:100E80005CEA010206D030228DF804208DF80500BE
:100E900002229046009B83F0080353EA0A030AD11A
:100EA0005CEA010201D1620705D530228DF80420E9
:100EB0004FF001087F1E582804D034A003900EA8DC
:100EC00002900DE036A0F9E753466046009AFFF71E
:100ED0004BF984460398825C0298401E029002708F
:100EE0005CEA0100F0D1029806A9081A00F1200A74
:100EF000600702D524F4803400E00127574502DD65
:100F0000A7EB0A0000E0002000EB0A010090059822
:100F10004144401A0590E00306D45B462146179AE7
:100F2000059800F0B3F90544002706E001A85A46E9
:100F3000C05D179990476D1C7F1C4745F6DBE003A9
:100F40000CD55B462146179A059800F09FF9054499
:100F500004E030205A46179990476D1C0099481EAE
:100F600000900029F5DC08E0029802995A460078C2
:100F7000491C0291179990476D1CBAF10001AAF122
:100F8000010AF1DC65E1000009280100303132334B
:100F900034353637383961626364656600000000B5
:100FA000303132333435363738394142434445469F
:100FB0000000000000F058F90544761C3078002845
:100FC0007FF4ECAD19B02846BDE8F08F620700D47D
:100FD000062709F1070222F0070CFCE80223E1468C
:100FE00003F000485FEA080C02D00FF2702C0DE00D
:100FF0005FEA045C02D50FF2682C07E05FEAC47C6C
:1010000002D00FF2602C01E0AFF2700C4FF0FF380D
:1010100023F00043CDF850C065280CD006DC4528ED
:1010200009D046281DD047283DD13DE0662818D07C
:1010300067287ED138E00021112F01DB112000E06C
:10104000781CCDE9000106A90EA8FFF7DDFCDDE95B
:101050000F010E9A03910021009207F1010A0491F9
:101060004DE04FF000400097CDE9011006A90EA811
:10107000FFF7CAFCDDE90F0203920E9B11990022D3
:10108000DDF80CA00093049211B9791C00EB010A61
:10109000B7EB0A0004D4C0F1FF3007F1010A049055
:1010A000AAEB0700019044E0012F00DA012700219C
:1010B000112F01DD112000E03846CDE9000106A91D
:1010C0000EA8FFF7A1FCDDE90F010E9A03910021A4
:1010D00004910092BA4621070CD40399514500DAD5
:1010E0008A46BAF1010F05DD009AAAF10101515CAF
:1010F000302908D0B84202DA10F1040F06DA0121D3
:10110000CDE9011015E0AAF10101E9E7002805DCAD
:10111000049901440491AAEB000102E0411C5145ED
:1011200000DD8A460499401A401C01904FF00040AF
:101130000290200704D40198504501DBCDF80480CB
:1011400000208DF84F0002980DF14F07B0F1004FCD
:1011500025D02B200E9002984FF0020800280CDAC0
:10116000404202902D200E9007E00A210298FFF7DE
:10117000B9FA3031029007F8011DB8F10001A8F169
:101180000108F2DC02980028EFD1791E0E98087051
:10119000307800F0200040F0450007F8020D12A85A
:1011A000C01B00F107081498007800B1012000EB83
:1011B0000A01019801EBE07105984144401A401E74
:1011C0000590E00306D45B462146179A059800F087
:1011D0005DF805441498007818B15A46179990475D
:1011E0006D1CE00324D55B462146179A059800F054
:1011F0004DF805441CE00498002807DBDDE90301F5
:10120000884203DD0098405C179901E0179930206F
:101210005A469047049805F10105401C0490019836
:10122000401E019004D12E205A46179990476D1CFC
:10123000BAF10001AAF1010ADDDC05E017F8010BA3
:101240005A46179990476D1CB8F10001A8F10108A2
:10125000F4DC5B462146179A0598ABE62D000000AA
:101260002B000000200000002DE9F041044600257D
:101270001E461746880404D405E039462020B047AE
:101280006D1C641EF9D52846BDE8F0812DE9F041BA
:10129000044600251E469046C80301D5302700E0CD
:1012A0002027880404D505E041463846B0476D1C28
:1012B000641EF9D52846BDE8F081000010B540F263
:1012C000026000F013FD4FF4C06000F00FFD40F22B
:1012D000096000F00BFD40F21D7000F007FD0520D5
:1012E00000F04EFC102303220021244800F01CFBD8
:1012F000402303220021214800F016FB0122022195
:101300001F4800F022F900211D4800F077F8012263
:1013100011461B4800F04FF805230622002118480B
:1013200000F0AAF800220121154800F07BF81448CB
:1013300000F06FF8012000F001FA114800F026F8E3
:101340003821002000F0C6F9002000F0B1F900219A
:10135000084600F0D9F9002000F086F9002000F0DE
:1013600071F90020074908624FF08340C8610648C0
:1013700088610121034800F015F910BD0008014003
:1013800000240140240000200000C842816841F090
:101390000801816000BF816801F008010029FAD1CD
:1013A000816841F00401816000BF816801F004019F
:1013B0000029FAD1704730B5012902D002291AD18B
:1013C0000CE0C36A23F47003C362C36A541E4FF473
:1013D000700505EA04542343C3620DE0836B23F4D4
:1013E00040138363836B541E4FF4401505EA045485
:1013F0002343836300E000BF00BF30BD21B182689A
:1014000042F40062826003E0826822F4006282603B
:101410007047816801F0010119B9816841F001014B
:101420008160704772B101F001031BB1836843F41E
:101430008013836001F0020393B1836843F4004397
:1014400083600DE001F001031BB1836823F4801376
:10145000836001F002031BB1836823F400438360BF
:10146000704702688A430260704702460020136892
:101470000B4003B101207047F0B51D4606290CDA78
:10148000436B01EB81071F26BE40B34301EB81068E
:1014900002FA06F63343436322E00C290EDA036BAB
:1014A0008E1F06EB86071F26BE40B3438E1F06EB3A
:1014B000860602FA06F63343036311E010290FDAB9
:1014C000C36AA1F10C0606EB86071F26BE40B34394
:1014D000A1F10C0606EB860602FA06F63343C36258
:1014E0000A2A0CDA046902EB42070726BE40B4431D
:1014F00002EB420605FA06F63443046111E0122AB3
:101500000FDAC468A2F10A0606EB46070726BE40BA
:10151000B443A2F10A0606EB460605FA06F6344382
:10152000C460F0BD0146C86C80B2704701F0010292
:101530001AB1826842F48002826001F002021AB19C
:10154000826842F4001282607047AAB101F480738D
:101550001BB1436843F48073436001F480631BB1A3
:10156000436843F48063436001F00203CBB18368B6
:1015700043F00203836014E001F480731BB14368FD
:1015800023F48073436001F480631BB1436823F448
:101590008063436001F002031BB1836823F0020300
:1015A000836070472DE9F04104460D46D4E90601F9
:1015B000FEF72CFE0646216AFEF728FE20604FF05B
:1015C0008040216AFEF77AFE0746A06980F0004657
:1015D00039463046FEF76CFE6060206AA0601DB19F
:1015E0000020E06020616061BDE8F08190B921B128
:1015F000012905D002290BD106E0114B1A6008E041
:101600000F4B1B1D1A6004E00D4B08331A6000E0FD
:1016100000BF13E021B1012906D002290CD107E057
:10162000074B0C331A6008E0054B10331A6004E0D6
:10163000034B14331A6000E000BF00BF7047000086
:101640000874004030B90749096841F00101054AB2
:10165000116005E00349096841F48031014A1160D5
:10166000704700000074004030B90749096821F054
:101670000201054A116005E00349096821F40031BF
:10168000014A1160704700000074004030B90749FA
:10169000096841F00101054A116005E00349096844
:1016A00041F00201014A11607047000004740040DB
:1016B00030B90749096841F00401054A116005E0A5
:1016C0000349096841F48021014A11607047000014
:1016D0000074004050B90B4A126822F03802094BDE
:1016E0001A601A4612680A431A600AE0054A12682C
:1016F00022F46012034B1A601A46126842EA014251
:101700001A6070470074004050B90B4A126822F00A
:10171000C002094B1A601A4612680A431A600AE0AE
:10172000054A126822F44002034B1A601A461268F6
:1017300042EA01421A6070470074004070B50446E6
:101740003C20B4FBF0F6B4FBF0F100FB114503E0E4
:101750003C2000F009F8761E002EF9D115B128467C
:1017600000F002F870BD000001460020114A126826
:101770004A434FF0E0235A6100229A611A461269E7
:1017800042F001021A6100BF4FF0E022106900F040
:1017900001021AB100F48032002AF5D04FF0E022A5
:1017A000126922F001024FF0E0231A6100229A61CF
:1017B00070470000080000202DE9FC5F4FF0000A90
:1017C0003A4C3B4801683B480068FEF771FD05460E
:1017D0002169A068FEF772FD0190E1686068FEF77C
:1017E0006DFD814629462068FEF768FD834649461F
:1017F000FEF70CFD80460199FEF708FD074661697A
:10180000FEF704FD0646E1682161E560666100BF00
:10181000B24629495046FEF75BFF01D8DFF898A091
:101820005046FEF712FF84B2224600210846FFF719
:10183000DDFE0020FFF72AFF01212048FFF776FE9A
:1018400002211E48FFF711FEC8B102211B48FFF715
:1018500008FE1A48FFF766FE8346FEF7E9FE80465B
:101860000022174BFEF775FE06464FF06632154B09
:10187000FEF7FDFD0446FEF70FFF0D4908600F4817
:10188000FFF750FE04465046FEF7DFFE87B20848D9
:101890000068FEF7EEFE05462A460B460AA0CDE993
:1018A0000074FFF791F8BDE8FC9F000024000020C1
:1018B000100000200C00002000F07F4500240140B3
:1018C00000FEAF4066660A40256609256409256466
:1018D0000D0A000070B504460D46E1B2054800F05F
:1018E000E5FA00BF0721034800F0E9FA0028F9D023
:1018F000204670BD003801400022034B1A68130CCB
:1019000003800A8070470000E0F7FF1F054909685F
:1019100001600449091F09684160024908390968E2
:1019200081607047F0F7FF1FF0B5044616460025AA
:10193000002201F00F0501F0100707B13543002028
:101940001EE0012787401F40C7B122684FEA800C84
:101950000F2707FA0CF7BA43870005FA07F73A434F
:10196000282904D1012787401F40676105E04829E5
:1019700003D1012787401F4027612260471CB8B26E
:101980000828DED3082022E0012787401F40E7B166
:101990006268A0F108074FEA870C0F2707FA0CF7D7
:1019A000BA43A0F10807BF0005FA07F73A43282910
:1019B00004D1012787401F40676105E0482903D112
:1019C000012787401F4027616260471CB8B210287A
:1019D000DAD3F0BD10B540F2066000F087F94FF49D
:1019E0008063012210211248FFF79EFF4FF400632D
:1019F000012210210E48FFF797FF4FF48053012278
:101A000010210B48FFF790FF4FF4005301221021E3
:101A10000748FFF789FF0020064908600649C1F81A
:101A2000AC010449083108600349C1F8B40110BD94
:101A300000180140A801234200002342602000F06A
:101A4000DBF9FFF7C7FF4FF4165000F059F80F49C4
:101A5000881EFFF751FF0D48801E028841880CA0A8
:101A6000FEF7B2FF1748FFF751FF16488368426838
:101A7000016815A0FEF7A8FFFFF720FC04E0FFF7C0
:101A80009BFE6420FFF75AFEF9E7000002000020E9
:101A90004744333246313033564B543620466C611E
:101AA00073682053697A653D25644B422C537261FB
:101AB0006D2053697A653D25644B422E2E2E0D0A0A
:101AC0000000000018000020474433324631303314
:101AD000564B5436205549443D2564256425642ED3
:101AE0002E2E0D0A00000000034A0A400243034B59
:101AF0001A60BFF34F8F704780FFFF1F08ED00E0B3
:101B000010B5044640F2026000F0F0F840F20E60BA
:101B100000F0ECF84FF40073032218211648FFF789
:101B200003FF4FF48063032248211348FFF7FCFEB4
:101B30002146124800F072F90021104800F0FEF929
:101B400000210E4800F0EAF900210C4800F0D6F917
:101B500000210A4800F0C2F90021084800F0C6F947
:101B60000821064800F0E2F90421044800F0CEF90B
:101B7000024800F09FF910BD000801400038014004
:101B80000F4A51680F4A1140082814D2DFE800F0CC
:101B900004050607130A130B00BF00BF00BF41EA8C
:101BA000803109E000BF20F004004FF0805242EA8B
:101BB0008032114300E000BF00BF014A516070470E
:101BC00000100240FF3FFFEF2DE9F04F8BB00746BA
:101BD000002009903EA090E8004CC068CDE905BE09
:101BE000CDF810A007900FF2EC0ADAE9000ACDE96F
:101BF000020A0FF2E00ADAE9000ACDE9000A3848E1
:101C00004068C0F381000A900A9820B1012804D0EE
:101C1000022829D103E0334928E0324926E0304840
:101C2000406800F48038B8F5803F09D12D4C2C482D
:101C3000406800F40039B9F5003F02D1641000E0BB
:101C4000294C27484068C0F383422548406800F08B
:101C5000006008B142F010020F2A01D2921C00E08D
:101C6000521C04FB02F101E01E4900BF00BF1C48EA
:101C70004068C0F3031504A8465D21FA06F318482E
:101C80004068C0F3022502A8465D23FA06FC14480A
:101C90004068C0F3C2251DF8056023FA06F00890DD
:101CA00037B1012F06D0022F06D0032F0AD106E04C
:101CB000099108E0099306E0CDF824C003E00898F4
:101CC000099000E000BF00BF09980BB0BDE8F08F9D
:101CD00000000000000000000102030406070809DC
:101CE0000010024000127A0000093D00064A02EB93
:101CF0009011096800F01F0301229A401143024B22
:101D000003EB901211607047001002400020002188
:101D10002B4A126842F48032294B1A6000BF401CE3
:101D2000274A126802F4003119B94FF6FF72904247
:101D3000F5D1234A126802F400320AB900BFFEE767
:101D40001F4A52681E4B5A601A4652685A601A4619
:101D5000526842F480625A601A46526822F4403255
:101D60005A601A46526842F480325A601A465268E3
:101D7000144B1A40124B5A601A46526842F4201211
:101D80005A601A46126842F080721A6000BF0C4A0C
:101D9000126802F00072002AF9D0094A526822F053
:101DA0000302074B5A601A46526842F002025A6018
:101DB00000BF034A526802F00C02082AF9D17047AA
:101DC00000100240FFFFC3F710B5FFF79FFF10BDE3
:101DD000042808D14FF0E021096941F004014FF0D7
:101DE000E022116107E04FF0E021096921F00401D0
:101DF0004FF0E0221161704710B504460420FFF750
:101E0000E7FF044804704FF47A70604302490860A9
:101E100010BD000004000020080000202DE9F0475C
:101E200004460D460027B846B94600261D49601AEB
:101E30008C421CD006DC1C48204470B1B0F5806F89
:101E40001FD10FE0B0F5806F16D0B0F56C4F18D1F0
:101E50000320FFF7B9FE074614E00220FFF7B4FEA7
:101E600007460FE00220FFF7AFFE07460AE0022018
:101E7000FFF7AAFE074605E00220FFF7A5FE07468A
:101E800000E000BF00BF07EB5500B0FBF5F64FF6D2
:101E9000F07006EA000806F00F0948EA0900A060A1
:101EA000BDE8F087004C004000BCFFBFC1F3080252
:101EB00042607047C16841F40051C160704710B57D
:101EC000024602EB9110006801F01F040123A340B9
:101ED000184008B1012010BD0020FCE70A4600218F
:101EE000416921F400711143416170470A460021A4
:101EF000416921F48071114341617047C26822F445
:101F0000C062C260C2680A43C26070470A460021CC
:101F1000C16821F004011143C1607047026922F4D5
:101F20004052026102690A43026170470A46002179
:101F3000C16821F008011143C1607047C26822F4F2
:101F40008052C260C2680A43C26070476C1F0008BA
:101F50000000002018000000E8090008841F0008A5
:101F60001800002030040000F809000800000000FC
:101F700000000000000000003B1E0A4000000000BE
:041F8000000000005D
:0400000508000131BD
:00000001FF
