:020000040800F2
:100000003808002045010008370900082F090008BA
:100010003309000829090008110A0008000000003F
:100020000000000000000000000000003B09000884
:100030002D09000800000000390900085D010008D2
:100040005F0100085F0100085F0100085F01000810
:100050005F0100085F0100085F0100085F01000800
:100060005F0100085F0100085F0100085F010008F0
:100070005F0100085F0100085F0100085F010008E0
:100080005F0100085F0100085F0100085F010008D0
:100090005F0100085F0100085F0100085F010008C0
:1000A0005F0100085F0100085F0100085F010008B0
:1000B0005F0100085F0100085F0100085F010008A0
:1000C0005F0100085F0100085F0100085F01000890
:1000D0005F0100085F0100085F0100085F01000880
:1000E0005F0100085F0100085F0100085F01000870
:1000F0005F0100085F0100085F0100085F01000860
:100100005F0100085F0100085F0100085F0100084F
:100110005F0100085F0100085F0100085F0100083F
:100120005F0100085F0100085F0100085F0100082F
:10013000DFF80CD000F0E6FB00480047111D000876
:10014000380800200648804706480047FEE7FEE7DB
:10015000FEE7FEE7FEE7FEE7FEE7FEE7FEE7FEE777
:100160003D090008310100082DE9F05F0546002037
:1001700092469B4688460646814640241BE0284618
:1001800041464746224600F0E9FA53465A46C01A0D
:10019000914110D311461846224600F016F82D1A48
:1001A00067EB01084F4622460120002100F00DF8C0
:1001B00017EB00094E41201EA4F10104DFDC484684
:1001C00031462A464346BDE8F09F202A04DB203A08
:1001D00000FA02F1002070479140C2F1200320FA9A
:1001E00003F3194390407047202A06DBCB17203ACF
:1001F00041FA02F043EAE07306E041FA02F3D0402C
:10020000C2F12002914008431946704740EA0103B9
:100210009B0703D009E008C9121F08C0042AFAD2BC
:1002200003E011F8013B00F8013B521EF9D2704780
:10023000D2B201E000F8012B491EFBD27047002228
:10024000F6E710B513460A4604461946FFF7F0FFD5
:10025000204610BDF0B480EA0102D40F4200B2EB98
:10026000410F02D20246084611464A0042D0C30D51
:10027000DDB2C1F3C752AD1A202D35DAC1F3160134
:1002800041F4000204B15242C5F1200602FA06F11F
:100290002A411044B3EBD05F23D0C4B1012DA0EBB1
:1002A000C35009DCF0BC4FF0004202EAC352DBB29B
:1002B00000F5000000F06BBA400000F1807000EB28
:1002C000C350A0F1807040EAD170490009E04908AC
:1002D00041EAC071A0EBC35000F50000400800EBFC
:1002E000C350F0BC00F04ABA6142012202EB410166
:1002F000001BF6E7F0BC704781F00041AAE780F0F0
:100300000040A7E780EA010210B502F00043400078
:1003100022D04A001FD0010E01EB1261C0F356003B
:10032000C2F3560240F4000042F40002A0FB022097
:1003300000047F39140400D0401C50EA124001D45C
:100340004000491EC2B20C0604EBD010401C40080D
:10035000802A02D003E0002010BD20F00100002917
:1003600000DA0020184310BD30B480EA010202F028
:10037000004530F0004221F0004013D090B1C30D91
:10038000D40DC2F31601C0F31600E41A41F40001C3
:1003900040F400027D34914201D3641C00E0490026
:1003A000002C02DA30BC002070474FF4000000231C
:1003B000914201D3891A034340084FEA4101F7D122
:1003C00051B1914202D14FF0004105E002D24FF00D
:1003D000010101E06FF0010103EBC450284430BC7F
:1003E00000F0CCB92DE9FE4F804681EA0300C00F32
:1003F0000C46009021F0004123F00045B8EB0200CC
:10040000A94105D24046214690461C460B4602466D
:1004100023F00040104347D0270DC7F30A00C3F371
:100420000A510290401A019040286BDAC3F313007E
:1004300040F4801B0098924620B10023D2EB030ABF
:1004400063EB0B0B01985946C0F140025046FFF791
:10045000BCFE06460D4650465946019AFFF7C4FEBB
:1004600010EB08006141002487EA115284EAE77327
:100470001A4340D0009A62B3019A012A4FEA075208
:1004800015DC001B61EB02014FF0004202EA07524B
:10049000CDE90042001C41F5801132462B4600F0A8
:1004A000B3F903B0BDE8F08F40462146F9E7001BE1
:1004B00061EB0201001C41F5801300185B4120181C
:1004C000A2F5001747EB030140EAD570B6196D415C
:1004D00011E06D084FEA360645EAC0754FEA07524B
:1004E000001B61EB0201001C41F5801149084FEA35
:1004F00030000019514132462B4603B0BDE8F04FA1
:1005000000F073B90098012240000023D0EB0202F2
:1005100063EBE073009821464FEAE074B8EB00000B
:1005200061EB0401E9E783F000435BE781F0004100
:1005300058E72DE9FE4F81EA030404F0004421F05E
:10054000004100944FF0000B23F0004350EA0104F7
:100550005ED052EA03045BD0C3F30A54C1F30A55D8
:100560002C44A4F2F3340194A0FB0254C1F3130110
:1005700041F48011C3F3130343F4801301FB0244DD
:1005800000FB034E840A970A44EA815447EA8357E2
:10059000A4FB076802958D0A05FB07854FEA932C9B
:1005A00004FB0C542705029D4FEA065847EA16370C
:1005B000B5EB08056EEB070C870E920E47EA811724
:1005C00042EA8312A7FB0201B6EB0B0164EB0004C5
:1005D0002B0D43EA0C335E1844EB1C50DA465146AF
:1005E000E7FB0201C5F313044FEA0B3343EA14534C
:1005F0004FEA0432019C43EA0603A4F10C0402947E
:10060000009CCDE900B400F0FFF803B0BDE8F08F26
:1006100000200146F9E72DE9F04D81EA030404F0DA
:10062000004B21F0004514464FF0000A23F0004132
:1006300050EA050220D054EA01021DD0C5F30A5742
:100640000246C5F31303C1F31300C1F30A5640F485
:10065000801543F48013A7EB0608101BD64608F25A
:10066000FD3873EB050002D308F1010801E0921890
:100670005B41B8F1000F03DA00200146BDE8F08DC0
:1006800000204FF48011064684460EE0171B73EBE2
:10069000050705D3121B63EB050306434CEA010C67
:1006A00049084FEA300092185B4150EA0107EDD14A
:1006B00052EA030012D082EA040083EA05010843EB
:1006C00005D0101BAB4106D20122002306E0002218
:1006D0004FF0004302E06FF0010253101AEB0600E6
:1006E0004CEB085110EB0A0041EB0B01BDE8F04D5B
:1006F00000F07BB800F0004230F000400AD0C10D9D
:1007000001F56071C0F3160042EA0151C2084007CA
:10071000114370470020014670470000002801DBAC
:10072000C0F10040002901DBC1F100418142704766
:1007300030B50B46014600202022012409E021FAB1
:1007400002F59D4205D303FA02F5491B04FA02F5AE
:100750002844151EA2F10102F1DC30BD202A04DB81
:10076000203A21FA02F00021704721FA02F3D0402A
:10077000C2F1200291400843194670470029A8BFE2
:100780007047401C490008BF20F00100704710B4BA
:10079000B0FA80FC00FA0CF050EA010404BF10BC6F
:1007A000704749B1CCF1200421FA04F411FA0CF19C
:1007B00018BF012121430843A3EB0C01CB1D4FEAD5
:1007C00000614FEA102042BF002010BC704700EBD0
:1007D000C35010440029A4BF10BC7047401C4900FE
:1007E00008BF20F0010010BC704710B5141E73F153
:1007F000000408DA401C41F1000192185B411A43E1
:1008000001D120F0010010BD2DE9F04D92469B462C
:1008100011B1B1FA81F202E0B0FA80F220329046D2
:10082000FFF7D3FC04460F4640EA0A0041EA0B01F9
:1008300053465A46084313D0114653EA010019D0D3
:10084000C8F140025046FFF789FF05460E46504664
:1008500059464246FFF7B9FC084305D0012004E0A1
:1008600020463946BDE8F08D0020054346EAE07693
:100870002C4337430A986305E40AA0EB08000022E2
:10088000FD0A44EA47540A3002D500200146E9E750
:10089000010510196941DDE9084500196941BDE804
:1008A000F04DA2E7C1F30A52C1F3130140F2FF3346
:1008B00041F480119A4202DA00200146704740F26A
:1008C00033439A42A2F2334202DC5242FFF746BF60
:1008D000FFF77BBC30B5041E71F1000404DB4FF060
:1008E0000044404264EB0101141E73F1000405DB77
:1008F0001C464FF00043524263EB0403994208BF89
:10090000904230BD064C074D06E0E06840F0010320
:1009100094E8070098471034AC42F6D3FFF70CFC7C
:10092000742300089423000800BFFEE7704700BF4F
:10093000FEE700BFFEE770477047704708B53048D4
:10094000006840F001002E49086000BF2C48006894
:1009500000F002000028F9D000BF2948406840F0AC
:100960008000274948600020009002E00098401C69
:10097000009000985028F9D32148406840F090003A
:100980001F4948600020009002E00098401C009041
:1009900000985028F9D300BF1948406820F00300A0
:1009A000174948600846006816490840144908601D
:1009B00008464068144908401149486008460068E4
:1009C000104908400E4908600846006820F480205D
:1009D0000860084640680D490840094948600846D3
:1009E000006808490840064908604FF41F00886005
:1009F00001F036FB00214FF0006001F0E5F908BD81
:100A000000100240FFFFF6FE0C00FFE8FFFF00F7BA
:100A100000BFFEE70FB4054B10B503A9044A0298C6
:100A200000F0DAF810BC5DF814FB0000611B000850
:100A30002800002002E008C8121F08C1002AFAD1CD
:100A400070477047002001E001C1121F002AFBD14E
:100A5000704700002DE9FF5F82B00021DDE904301E
:100A6000020DDDF840B0034318D044F61050A2F256
:100A7000FF3242431514119801281FD0A5EB0B003B
:100A8000401C5FEA000A4FF000064E4FDFF8389135
:100A9000B046504615D5CAF1000413E01198012460
:100AA0004AA3012801D16FEA0B010298119AC0E90B
:100AB0000031C0E9024206B0BDE8F09FCBF1000072
:100AC000DFE704460021404A491842EB0450CDE9D3
:100AD000001012E0E00707D032463B464046494648
:100AE000FFF727FD8046894632463B4610461946A9
:100AF000FFF71FFD06460F466410002CEAD1DDE922
:100B00000401DDE90023BAF1000F06DAFFF711FD59
:100B100042464B46FFF70DFD05E0FFF77CFD4246E0
:100B20004B46FFF778FD04460E460022284BFFF7A0
:100B3000D1FE03D84FF0FF30014607E00022254BDD
:100B400020463146FFF74EFCFFF7ACFE102409E0CB
:100B5000002C0ADB0A220023FFF706FB039B30323E
:100B60001A55641E50EA0102F2D1641C039AC4F1C2
:100B700011031444119A012A03D0012208430DD114
:100B80000AE0084304D000204FF0110B119072E7E7
:100B9000A3EB0B056D1E0DE05B4504DD4FF000027D
:100BA00005F1010504E003DA4FF00002A5F10105AB
:100BB000002AECD002981199C0E90231C0E9004541
:100BC00079E70000000014400000F03F3000000012
:100BD0000000F0430000E03F2DE9FF4F95B09B4639
:100BE0008946064600250FE2252877D100242746AE
:100BF000F84A0121059400E0044316F8013F203B28
:100C000001FA03F01042F7D130782A2811D06FF0A2
:100C10002F033078A0F13002092A16D8059A44F043
:100C2000020402EB820203EB42021044761C0590A0
:100C3000EFE759F8042B0592002A03DA504244F4F6
:100C40000054059044F00204761C30782E2816D10A
:100C500016F8010F44F004042A280DD06FF02F027B
:100C60003078A0F13003092B09D807EB870302EB9A
:100C70004303C718761CF3E759F8047B761C3078D9
:100C80006C280FD006DC4C2817D068280DD06A28B5
:100C900014D104E0742810D07A280FD10DE044F468
:100CA00000140AE044F4801401E044F44014727823
:100CB000824202D104F58014761C761C30786628B6
:100CC0000BD013DC582877D009DC002875D04528D4
:100CD000F6D04628F4D047281AD19DE118E06328C1
:100CE00035D0642879D0652812D195E1702873D069
:100CF00008DC6728F1D069286FD06E280DD06F28E6
:100D000006D1B5E073282CD0752875D0782874D01A
:100D10005A46179990476D1C75E1C4F3025002289A
:100D200009D003280DD0D9F8001004280DD00D608B
:100D300009F1040967E1D9F80010EA17C1E9005286
:100D4000F6E7D9F800100D80F2E70D70F0E719F81A
:100D5000041B8DF8001000208DF80100EA460120E8
:100D600003E059F804AB4FF0FF3061074FF000018A
:100D700002D40DE008F101018846B9420FDA80453E
:100D8000F8DB1AF808100029F4D108E008F1010195
:100D900088468142FADB1AF808100029F6D1059836
:100DA0005B46A0EB080721463846179A00F094FAF4
:100DB000284400EB080507E04DE029E10DE01AF8B2
:100DC000010B5A4617999047B8F10108F7D25B46D4
:100DD00021463846179A13E142E00A220092C4F3F2
:100DE00002524FF0000A022A08D059F804CB032A15
:100DF0004FEAEC710AD00DE029E02AE009F1070181
:100E000021F00702F2E802C1914609E00FFA8CFCDA
:100E10004FEAEC71042A03D14FFA8CFC4FEAEC71D3
:100E2000002907DA0A460021DCF1000C61EB02011F
:100E30002D2202E0220504D52B228DF80420012268
:100E400003E0E20701D02022F7E7904659E00A21AB
:100E500002E010220DE010214FF0000A00910BE09B
:100E600010224FF0000A44F004040827009203E027
:100E700008224FF0000A0092C4F30252022A05D061
:100E800059F804CB0021032A08D009E009F1070131
:100E900021F00702F2E802C1914605E01FFA8CFC3E
:100EA000042A01D10CF0FF0C4FF00008220728D5CE
:100EB000702806D0009B83F0100353EA0A0305D084
:100EC0000EE040228DF80420012208E05CEA0102D5
:100ED00006D030228DF804208DF8050002229046BD
:100EE000009B83F0080353EA0A030AD15CEA01027B
:100EF00001D1620705D530228DF804204FF001089A
:100F00007F1E582804D034A003900EA802900DE054
:100F100036A0F9E753466046009AFFF725F9844664
:100F20000398825C0298401E029002705CEA010005
:100F3000F0D1029806A9081A00F1200A600702D52C
:100F400024F4803400E00127574502DDA7EB0A00B6
:100F500000E0002000EB0A01009005984144401A8F
:100F60000590E00306D45B462146179A059800F0E9
:100F7000B3F90544002706E001A85A46C05D179959
:100F800090476D1C7F1C4745F6DBE0030CD55B46A4
:100F90002146179A059800F09FF9054404E0302097
:100FA0005A46179990476D1C0099481E00900029D9
:100FB000F5DC08E0029802995A460078491C029133
:100FC000179990476D1CBAF10001AAF1010AF1DCF2
:100FD00065E10000092801003031323334353637FD
:100FE0003839616263646566000000003031323375
:100FF0003435363738394142434445460000000015
:1010000000F058F90544761C307800287FF4ECADE8
:1010100019B02846BDE8F08F620700D4062709F111
:10102000070222F0070CFCE80223E14603F0004827
:101030005FEA080C02D00FF2702C0DE05FEA045C4E
:1010400002D50FF2682C07E05FEAC47C02D00FF2F1
:10105000602C01E0AFF2700C4FF0FF3823F000433A
:10106000CDF850C065280CD006DC452809D04628AC
:101070001DD047283DD13DE0662818D067287ED195
:1010800038E00021112F01DB112000E0781CCDE9B0
:10109000000106A90EA8FFF7DDFCDDE90F010E9A9D
:1010A00003910021009207F1010A04914DE04FF0F5
:1010B00000400097CDE9011006A90EA8FFF7CAFC71
:1010C000DDE90F0203920E9B11990022DDF80CA0BE
:1010D0000093049211B9791C00EB010AB7EB0A00E6
:1010E00004D4C0F1FF3007F1010A0490AAEB070015
:1010F000019044E0012F00DA01270021112F01DDCA
:10110000112000E03846CDE9000106A90EA8FFF73E
:10111000A1FCDDE90F010E9A0391002104910092D8
:10112000BA4621070CD40399514500DA8A46BAF130
:10113000010F05DD009AAAF10101515C302908D0A8
:10114000B84202DA10F1040F06DA0121CDE90110EC
:1011500015E0AAF10101E9E7002805DC0499014442
:101160000491AAEB000102E0411C514500DD8A46D2
:101170000499401A401C01904FF000400290200753
:1011800004D40198504501DBCDF8048000208DF88F
:101190004F0002980DF14F07B0F1004F25D02B20E2
:1011A0000E9002984FF0020800280CDA404202909C
:1011B0002D200E9007E00A210298FFF7B9FA30318E
:1011C000029007F8011DB8F10001A8F10108F2DC56
:1011D00002980028EFD1791E0E980870307800F040
:1011E000200040F0450007F8020D12A8C01B00F1D6
:1011F00007081498007800B1012000EB0A0101985B
:1012000001EBE07105984144401A401E0590E0034F
:1012100006D45B462146179A059800F05DF8054410
:101220001498007818B15A46179990476D1CE0033E
:1012300024D55B462146179A059800F04DF80544E1
:101240001CE00498002807DBDDE90301884203DD88
:101250000098405C179901E0179930205A46904752
:10126000049805F10105401C04900198401E01906E
:1012700004D12E205A46179990476D1CBAF10001EF
:10128000AAF1010ADDDC05E017F8010B5A461799AF
:1012900090476D1CB8F10001A8F10108F4DC5B4631
:1012A0002146179A0598ABE62D0000002B000000A0
:1012B000200000002DE9F041044600251E46174697
:1012C000880404D405E039462020B0476D1C641E14
:1012D000F9D52846BDE8F0812DE9F0410446002506
:1012E0001E469046C80301D5302700E02027880419
:1012F00004D505E041463846B0476D1C641EF9D55B
:101300002846BDE8F0812DE9F84F04460D46164603
:101310006768D5F80480D6F804902088618848432F
:101320000090DDF800A008E058F8041B01CFFEF79C
:1013300091FF49F8040BAAF1010ABAF1000FF3D1A9
:101340004FF0000B5846BDE8F88F018042804360A3
:1013500070472DE9F34F8FB00F98D0F804A0109884
:1013600040680E900F98B0F800B00F9844880020A5
:10137000069004900E9DCDF814B016E00598ABEBE6
:10138000000602E0002001C5761E002EFAD14FF0C3
:101390007E5001C50598461E02E0002001C5761E5C
:1013A000002EFAD10598401E059005980028E5D139
:1013B00003948046CDE008FB04F00AEB800708FBAD
:1013C00004F00E9901EB8005386806900120029028
:1013D00000213868FFF7A2F93FD108F1010939E08F
:1013E00004FB09F007EB80000D900298604305EBC9
:1013F00080000C900D9908680021FFF78FF924D028
:1014000000260BE00D980068079039680D98016080
:101410000D98001D0D90079801C7761CA4EB0800DD
:10142000B042EFD800260BE00C98006807902968BE
:101430000C9801600C98001D0C90079801C5761C53
:10144000A642F1D30120049006E00298401C0290CD
:1014500009F10109D945C3D300BF0498012809D077
:1014600000210698FFF75AF904D16FF0040011B07B
:10147000BDE8F08F08FB04F00AEB80000B9008FB3E
:1014800004F00E9901EB800009900B9F099D08FB69
:1014900004F05AF820000690002606E03868069905
:1014A000FEF762FF38603F1D761CA4EB0800B042D7
:1014B000F4D8002606E028680699FEF755FF286054
:1014C0002D1D761CA642F6D357460E9D4FF00009FF
:1014D00036E0C14506D1A4EB080007EB800705EB19
:1014E000840529E0386806900B980A9009980890BE
:1014F00000260CE00A9802C80A900698FEF702FF40
:1015000000903968FEF7FBFE38603F1D761CA4EBA7
:101510000800B042EED800260CE0089802C80890F7
:101520000698FEF7EFFE00902968FEF7E8FE2860B7
:101530002D1D761CA642F0D307EB880709F101099F
:10154000D945C6D30AF1040A0398401E039008F156
:101550000108039800287FF42EAF01900498012819
:101560001FD000210698FFF7D9F81AD10F98D0F8AC
:1015700004A04FF0000908E05AF829000021FFF705
:10158000CDF800D005E009F101090BFB04F0484556
:10159000F2D800BF0BFB04F0484502D16FF0040005
:1015A0000190019863E72DE9F04F8BB004460D469A
:1015B0009046D4F8049068680A906068099068685A
:1015C0000890D8F804000790208804906E88B4F83A
:1015D00002A04FF0000B0498039000BF079800EBA7
:1015E0008B000690374668680A9000BF002005907F
:1015F000DDF82490CDF808A011E059F8040B0A9A00
:101600001168FEF77FFE00900599FEF723FE059016
:101610000A9800EB86000A900298401E02900298F9
:101620000028EAD1DDE9050108600698001D069052
:101630007F1EF11B089800EB81000A90002FD5D186
:10164000B344099800EB8A0009900398401E039068
:1016500003980028C2D1019001980BB0BDE8F08F2B
:101660002DE9F05F04468A46154666686F68208853
:10167000618800FB01FBD84606E001CE5146FEF72B
:1016800041FE01C7A8F10108B8F1000FF5D14FF0F4
:1016900000094846BDE8F09F2DE9F84F04460D4685
:1016A00016466768D5F80480D6F8049020886188CB
:1016B00048430090DDF800A008E058F8041B01CF73
:1016C000FEF71AFE49F8040BAAF1010ABAF1000F5D
:1016D000F3D14FF0000B5846BDE8F88F2DE9F047E5
:1016E00002465368D1F804801588B2F802902E465D
:1016F0004FF0000C00BF08EB8C044F4606E053F897
:1017000004ABC4F800A004EB85047F1E002FF6D1C3
:101710000CF1010C761E002EEDD10020BDE8F08703
:1017200070B504463C20B4FBF0F6B4FBF0F100FBCE
:10173000114503E03C2000F009F8761E002EF9D197
:1017400015B1284600F002F870BD000001460020E7
:10175000114A12684A434FF0E0235A6100229A610D
:101760001A46126942F001021A6100BF4FF0E022EE
:10177000106900F001021AB100F48032002AF5D09D
:101780004FF0E022126922F001024FF0E0231A61CB
:1017900000229A61704700000800002010B500F098
:1017A00003F800F015F910BD70B5CCB064226F4994
:1017B00033A8FEF72BFD64226C4964311AA8FEF7AA
:1017C00025FD642101A8FEF73AFD002433AB6848EB
:1017D0000288684801886848FFF7B7FD1AAB64487B
:1017E0000288644801886548FFF7AFFD01AB604897
:1017F0000288604801886248FFF7A7FD61A0FFF7F3
:1018000009F900BF17E05C49496851F82400FEF768
:1018100071FF05462A460B465DA0FFF7FBF8052041
:1018200094FBF0F100FB1140042802D159A0FFF70E
:10183000F1F8601CC4B2192CE5DB56A0FFF7EAF8FA
:1018400055A0FFF7E7F8002417E04C49496851F824
:101850002400FEF74FFF05462A460B464CA0FFF733
:10186000D9F8052094FBF0F100FB1140042802D1C7
:1018700048A0FFF7CFF8601CC4B2192CE5DB404A42
:101880003E493D48FFF73FFD42A0FFF7C3F845A0A2
:10189000FFF7C0F8002417E03949496851F82400DF
:1018A000FEF728FF05462A460B4639A0FFF7B2F897
:1018B000052094FBF0F100FB1140042802D135A073
:1018C000FFF7A8F8601CC4B2192CE5DB2C4A2B49A1
:1018D0002948FFF768FE2FA0FFF79CF834A0FFF718
:1018E00099F8002417E02649496851F82400FEF7CA
:1018F00001FF05462A460B4625A0FFF78BF8052079
:1019000094FBF0F100FB1140042802D121A0FFF765
:1019100081F8601CC4B2192CE5DB19491648FFF7A1
:1019200018FD1CA0FFF776F824A0FFF773F8002439
:1019300017E01349496851F82400FEF7DBFE05461D
:101940002A460B4612A0FFF765F8052094FBF0F13C
:1019500000FB1140042802D10EA0FFF75BF8601CC9
:10196000C4B2192CE5DB4CB070BD0000E4210008C6
:1019700026000020240000200C000020140000207D
:101980001C000020BED8D5F3413D0D0A0000000028
:10199000256609000D0A0000BED8D5F3423D0D0AA8
:1019A00000000000BED8D5F3412B423D0D0A0000D7
:1019B000BED8D5F3412A423D0D0A0000BED8D5F36A
:1019C00041B5C4C4E6BED8D5F33D0D0A0000000001
:1019D00070B5CCB0002464224D4933A8FEF716FC44
:1019E00064224B4964311AA8FEF710FC642101A857
:1019F000FEF725FC33AB4748028847480188474833
:101A0000FFF7A3FC1AAB43480288434801884448C7
:101A1000FFF79BFC01AB3F4802883F4801884148E3
:101A2000FFF793FC3F4A40493C48FFF719FE3FA0AF
:101A3000FEF7F0FF3EA0FEF7EDFF00BF17E03949CB
:101A4000496851F82400FEF755FE05462A460B4624
:101A50003BA0FEF7DFFF052094FBF0F100FB1140F7
:101A6000042802D131A0FEF7D5FF601CC4B2192CA6
:101A7000E5DB2C4A2A492948FFF70EFE2BA0FEF78A
:101A8000C9FF30A0FEF7C6FF002417E025494968CA
:101A900051F82400FEF72EFE05462A460B4628A0E4
:101AA000FEF7B8FF052094FBF0F100FB114004287D
:101AB00002D11EA0FEF7AEFF601CC4B2192CE5DBFC
:101AC00018491648FFF70AFE18A0FEF7A3FF20A04A
:101AD000FEF7A0FF002417E01249496851F82400DE
:101AE000FEF708FE05462A460B4615A0FEF792FFB4
:101AF000052094FBF0F100FB1140042802D10BA05B
:101B0000FEF788FF601CC4B2192CE5DB4CB070BD39
:101B1000AC22000826000020240000200C00002039
:101B2000140000201C000020CDCCCC3D0D0A00008C
:101B3000BED8D5F3412A302E313D0D0A00000000F9
:101B400025660900BED8D5F3412D423D0D0A00009F
:101B5000BED8D5F341B5C4D7AAD6C33D0D0A0000FF
:101B600070B504460D46E1B2054800F0EBFA00BF3F
:101B70000721034800F0EFFA0028F9D0204670BD95
:101B8000003801400022034B1A68130C03800A80BE
:101B900070470000E0F7FF1F05490968016004492C
:101BA000091F096841600249083909688160704766
:101BB000F0F7FF1FF0B5044616460025002201F09D
:101BC0000F0501F0100707B1354300201EE0012783
:101BD00087401F40C7B122684FEA800C0F2707FAE1
:101BE0000CF7BA43870005FA07F73A43282904D1CE
:101BF000012787401F40676105E0482903D101277D
:101C000087401F4027612260471CB8B20828DED3F6
:101C1000082022E0012787401F40E7B16268A0F159
:101C200008074FEA870C0F2707FA0CF7BA43A0F111
:101C30000807BF0005FA07F73A43282904D101270E
:101C400087401F40676105E0482903D1012787408D
:101C50001F4027616260471CB8B21028DAD3F0BD7C
:101C600010B540F2066000F08DF94FF48063012258
:101C700010211248FFF79EFF4FF40063012210214C
:101C80000E48FFF797FF4FF48053012210210B48B5
:101C9000FFF790FF4FF40053012210210748FFF790
:101CA00089FF0020064908600649C1F8AC010449D3
:101CB000083108600349C1F8B40110BD00180140A3
:101CC000A80123420000234200200649086006497B
:101CD000C1F8AC010349083108600349C1F8B401F7
:101CE00070470000A801234200002342012006495A
:101CF00008600649C1F8AC0103490831086003498E
:101D0000C1F8B40170470000A8012342000023423B
:101D1000602000F0BDF9FFF7A3FF4FF4165000F06C
:101D20005FF81249881EFFF72DFF1048801E0288B9
:101D300041880FA0FEF76EFE1A48FFF72DFF1948E5
:101D400083684268016818A0FEF764FEFFF726FD6D
:101D50000BE0FFF7CBFF4FF47A70FFF7E1FCFFF7E2
:101D6000B3FF4FF47A70FFF7DBFCF2E702000020CC
:101D70004744333246313033564B543620466C613B
:101D800073682053697A653D25644B422C53726118
:101D90006D2053697A653D25644B422E2E2E0D0A27
:101DA000000000002C00002047443332463130331D
:101DB000564B5436205549443D2564256425642EF0
:101DC0002E2E0D0A00000000034A0A400243034B76
:101DD0001A60BFF34F8F704780FFFF1F08ED00E0D0
:101DE00010B5044640F2026000F0CCF840F20E60FC
:101DF00000F0C8F84FF40073032218211648FFF7CB
:101E0000D9FE4FF48063032248211348FFF7D2FE26
:101E10002146124800F04EF90021104800F0DAF98E
:101E200000210E4800F0C6F900210C4800F0B2F97C
:101E300000210A4800F09EF90021084800F0A2F9AC
:101E40000821064800F0BEF90421044800F0AAF970
:101E5000024800F07BF910BD000801400038014045
:101E60002DE9F04F8BB00746002009903EA090E886
:101E7000004CC068CDE905BECDF810A007900FF268
:101E8000EC0ADAE9000ACDE9020A0FF2E00ADAE91F
:101E9000000ACDE9000A38484068C0F381000A9082
:101EA0000A9820B1012804D0022829D103E033493F
:101EB00028E0324926E03048406800F48038B8F520
:101EC000803F09D12D4C2C48406800F40039B9F509
:101ED000003F02D1641000E0294C27484068C0F35D
:101EE00083422548406800F0006008B142F01002CB
:101EF0000F2A01D2921C00E0521C04FB02F101E007
:101F00001E4900BF00BF1C484068C0F3031504A869
:101F1000465D21FA06F318484068C0F3022502A87E
:101F2000465D23FA06FC14484068C0F3C2251DF83C
:101F3000056023FA06F0089037B1012F06D0022F72
:101F400006D0032F0AD106E0099108E0099306E0C4
:101F5000CDF824C003E00898099000E000BF00BF5E
:101F600009980BB0BDE8F08F0000000000000000F1
:101F700001020304060708090010024000127A005B
:101F800000093D00064A02EB9011096800F01F03AA
:101F900001229A401143024B03EB901211607047EB
:101FA00000100240002000212B4A126842F48032C7
:101FB000294B1A6000BF401C274A126802F4003106
:101FC00019B94FF6FF729042F5D1234A126802F414
:101FD00000320AB900BFFEE71F4A52681E4B5A6022
:101FE0001A4652685A601A46526842F480625A6031
:101FF0001A46526822F440325A601A46526842F435
:1020000080325A601A465268144B1A40124B5A607A
:102010001A46526842F420125A601A46126842F078
:1020200080721A6000BF0C4A126802F00072002A27
:10203000F9D0094A526822F00302074B5A601A4647
:10204000526842F002025A6000BF034A526802F02E
:102050000C02082AF9D1704700100240FFFFC3F7B5
:1020600010B5FFF79FFF10BD042808D14FF0E02105
:10207000096941F004014FF0E022116107E04FF0DF
:10208000E021096921F004014FF0E022116170475D
:1020900010B504460420FFF7E7FF044804704FF42E
:1020A0007A7060430249086010BD000004000020FF
:1020B000080000202DE9F04704460D460027B846E9
:1020C000B94600261D49601A8C421CD006DC1C480B
:1020D000204470B1B0F5806F1FD10FE0B0F5806F74
:1020E00016D0B0F56C4F18D10320FFF7B9FE0746A4
:1020F00014E00220FFF7B4FE07460FE00220FFF7CE
:10210000AFFE07460AE00220FFF7AAFE074605E0F9
:102110000220FFF7A5FE074600E000BF00BF07EB67
:102120005500B0FBF5F64FF6F07006EA000806F031
:102130000F0948EA0900A060BDE8F087004C0040A4
:1021400000BCFFBFC1F3080242607047C16841F4A0
:102150000051C160704710B5024602EB9110006853
:1021600001F01F040123A340184008B1012010BD55
:102170000020FCE70A460021416921F40071114367
:10218000416170470A460021416921F48071114381
:1021900041617047C26822F4C062C260C2680A43EB
:1021A000C26070470A460021C16821F00401114352
:1021B000C1607047026922F44052026102690A4319
:1021C000026170470A460021C16821F008011143ED
:1021D000C1607047C26822F48052C260C2680A437C
:1021E000C2607047000088410000C0410000803F8D
:1021F00000000041000070410000B8410000A04014
:102200000000E0400000604100008041000080408C
:102210000000C040000050410000A0410000B0415B
:102220000000204100004041000098410000A8410A
:102230000000404000003041000090410000C841D3
:1022400000000040000010410000404000004040FD
:10225000000040400000404000004040000040407E
:10226000000040400000404000004040000040406E
:10227000000040400000404000004040000040405E
:10228000000040400000404000004040000040404E
:10229000000040400000404000004040000040403E
:1022A00000004040000040400000404000008841E5
:1022B0000000C0410000803F00000041000070416C
:1022C0000000B8410000A0400000E0400000604174
:1022D00000008041000080400000C04000005041EC
:1022E0000000A0410000B04100002041000040413A
:1022F000000098410000A84100004040000030412B
:10230000000090410000C841000000400000104162
:1023100000004040000040400000404000004040BD
:1023200000004040000040400000404000004040AD
:10233000000040400000404000004040000040409D
:10234000000040400000404000004040000040408D
:10235000000040400000404000004040000040407D
:10236000000040400000404000004040000040406D
:102370000000404094230008000000202C000000D2
:10238000340A0008C02300082C0000200C080000BC
:10239000440A0008000000000000000000000000E7
:1023A000000000000000000000000000000000002D
:1023B0000000000000000000050005000000000013
:0400000508000131BD
:00000001FF
